{
  "transactions": [
    {
      "hash": "0xb32db5e619dfb9cc34a78ac5d12c5fdb44928ff17ad57df6c293c57c3a424097",
      "transactionType": "CALL",
      "contractName": null,
      "contractAddress": "0x90340201d0512ff6d7a33a715df28ceabd950003",
      "function": "grantRole(bytes32,address)",
      "arguments": [
        "0x0000000000000000000000000000000000000000000000000000000000000000",
        "0x42E750Deb20D1868Aa87F116Ee8231EdBD57c8cC"
      ],
      "transaction": {
        "from": "0x1333946c8f7e30a74f6934645188bf75a13688be",
        "to": "0x90340201d0512ff6d7a33a715df28ceabd950003",
        "gas": "0x121ff",
        "value": "0x0",
        "input": "0x2f2ff15d000000000000000000000000000000000000000000000000000000000000000000000000000000000000000042e750deb20d1868aa87f116ee8231edbd57c8cc",
        "nonce": "0x92c",
        "chainId": "0x14a34"
      },
      "additionalContracts": [],
      "isFixedGasLimit": false
    },
    {
      "hash": "0xaa4641752a6196e999f07be9181fd890a54ad74832ac5593e1f2e8986f86217c",
      "transactionType": "CALL",
      "contractName": null,
      "contractAddress": "0x90340201d0512ff6d7a33a715df28ceabd950003",
      "function": "grantRole(bytes32,address)",
      "arguments": [
        "0xe2b7fb3b832174769106daebcfd6d1970523240dda11281102db9363b83b0dc4",
        "0x42E750Deb20D1868Aa87F116Ee8231EdBD57c8cC"
      ],
      "transaction": {
        "from": "0x1333946c8f7e30a74f6934645188bf75a13688be",
        "to": "0x90340201d0512ff6d7a33a715df28ceabd950003",
        "gas": "0x12430",
        "value": "0x0",
        "input": "0x2f2ff15de2b7fb3b832174769106daebcfd6d1970523240dda11281102db9363b83b0dc400000000000000000000000042e750deb20d1868aa87f116ee8231edbd57c8cc",
        "nonce": "0x92d",
        "chainId": "0x14a34"
      },
      "additionalContracts": [],
      "isFixedGasLimit": false
    },
    {
      "hash": "0x4c0cd1c5af054961b6be1e17548e5b54d1d1e7f7f158aa94c0303ef8579fbd61",
      "transactionType": "CALL",
      "contractName": null,
      "contractAddress": "0x90340201d0512ff6d7a33a715df28ceabd950003",
      "function": "renounceRole(bytes32,address)",
      "arguments": [
        "0xe2b7fb3b832174769106daebcfd6d1970523240dda11281102db9363b83b0dc4",
        "0x1333946C8F7e30A74f6934645188bf75A13688Be"
      ],
      "transaction": {
        "from": "0x1333946c8f7e30a74f6934645188bf75a13688be",
        "to": "0x90340201d0512ff6d7a33a715df28ceabd950003",
        "gas": "0x8df6",
        "value": "0x0",
        "input": "0x36568abee2b7fb3b832174769106daebcfd6d1970523240dda11281102db9363b83b0dc40000000000000000000000001333946c8f7e30a74f6934645188bf75a13688be",
        "nonce": "0x92e",
        "chainId": "0x14a34"
      },
      "additionalContracts": [],
      "isFixedGasLimit": false
    },
    {
      "hash": "0x9eab403ef25f7680a369405efbb24203a9e3c5763c1bfe43f62e0d697503a9d9",
      "transactionType": "CALL",
      "contractName": null,
      "contractAddress": "0x90340201d0512ff6d7a33a715df28ceabd950003",
      "function": "renounceRole(bytes32,address)",
      "arguments": [
        "0x0000000000000000000000000000000000000000000000000000000000000000",
        "0x1333946C8F7e30A74f6934645188bf75A13688Be"
      ],
      "transaction": {
        "from": "0x1333946c8f7e30a74f6934645188bf75a13688be",
        "to": "0x90340201d0512ff6d7a33a715df28ceabd950003",
        "gas": "0x8bc5",
        "value": "0x0",
        "input": "0x36568abe00000000000000000000000000000000000000000000000000000000000000000000000000000000000000001333946c8f7e30a74f6934645188bf75a13688be",
        "nonce": "0x92f",
        "chainId": "0x14a34"
      },
      "additionalContracts": [],
      "isFixedGasLimit": false
    }
  ],
  "receipts": [
    {
      "status": "0x1",
      "cumulativeGasUsed": "0x24aa0d",
      "logs": [
        {
          "address": "0x90340201d0512ff6d7a33a715df28ceabd950003",
          "topics": [
            "0x2f8788117e7eff1d82e926ec794901d17c78024a50270940304540a733656f0d",
            "0x0000000000000000000000000000000000000000000000000000000000000000",
            "0x00000000000000000000000042e750deb20d1868aa87f116ee8231edbd57c8cc",
            "0x0000000000000000000000001333946c8f7e30a74f6934645188bf75a13688be"
          ],
          "data": "0x",
          "blockHash": "0x0000000000000000000000000000000000000000000000000000000000000000",
          "blockNumber": "0x28fa9e5",
          "blockTimestamp": "0x6a32b2aa",
          "transactionHash": "0xb32db5e619dfb9cc34a78ac5d12c5fdb44928ff17ad57df6c293c57c3a424097",
          "transactionIndex": "0xd",
          "logIndex": "0x75",
          "removed": false
        }
      ],
      "logsBloom": "0x00004004000000000000000000000000000000000000000000000000000000000000000000000000004000020000000000000000080000000000000000000000000000000000000000000000000000000000001000000000000000000000000000000000020000000000000000000800000000000000000000000000400000000000000000000000000000000000000000000000000000000000000000000000000000000000000000000000000000000000000000000000001000000000000000000000000000000000000000000000000000000000010100000000000020000000000000000000000001004000000000000000000000000000000000000000",
      "type": "0x2",
      "transactionHash": "0xb32db5e619dfb9cc34a78ac5d12c5fdb44928ff17ad57df6c293c57c3a424097",
      "transactionIndex": "0xd",
      "blockHash": "0x0000000000000000000000000000000000000000000000000000000000000000",
      "blockNumber": "0x28fa9e5",
      "gasUsed": "0xc64a",
      "effectiveGasPrice": "0x5b8d80",
      "blobGasUsed": "0xae38",
      "from": "0x1333946c8f7e30a74f6934645188bf75a13688be",
      "to": "0x90340201d0512ff6d7a33a715df28ceabd950003",
      "contractAddress": null,
      "daFootprintGasScalar": "0x1be",
      "l1BaseFeeScalar": "0x44d",
      "l1BlobBaseFee": "0x36880fe",
      "l1BlobBaseFeeScalar": "0xa118b",
      "l1Fee": "0x14d97116c",
      "l1GasPrice": "0x3db45423",
      "l1GasUsed": "0x640"
    },
    {
      "status": "0x1",
      "cumulativeGasUsed": "0x762d1b",
      "logs": [
        {
          "address": "0x90340201d0512ff6d7a33a715df28ceabd950003",
          "topics": [
            "0x2f8788117e7eff1d82e926ec794901d17c78024a50270940304540a733656f0d",
            "0xe2b7fb3b832174769106daebcfd6d1970523240dda11281102db9363b83b0dc4",
            "0x00000000000000000000000042e750deb20d1868aa87f116ee8231edbd57c8cc",
            "0x0000000000000000000000001333946c8f7e30a74f6934645188bf75a13688be"
          ],
          "data": "0x",
          "blockHash": "0x0000000000000000000000000000000000000000000000000000000000000000",
          "blockNumber": "0x28fa9e6",
          "blockTimestamp": "0x6a32b2ac",
          "transactionHash": "0xaa4641752a6196e999f07be9181fd890a54ad74832ac5593e1f2e8986f86217c",
          "transactionIndex": "0x1c",
          "logIndex": "0xb4",
          "removed": false
        }
      ],
      "logsBloom": "0x00004004000000000000000000000000000000000000000000000000000000000000000000000000004000020000000000000000080000000000000000000000000000000000000000000000000000000000001000000000000000000000000000000000000000000000000000000000000000000000000000000000400000000000000000000000000200000000000000000000000000000000000000000000000000000000000000000000000000000000000000000000001000000000000000000000000000000000000000000000000000000000010100000000000000000000000000000000000001004000000000000000000000000002100000000000",
      "type": "0x2",
      "transactionHash": "0xaa4641752a6196e999f07be9181fd890a54ad74832ac5593e1f2e8986f86217c",
      "transactionIndex": "0x1c",
      "blockHash": "0x0000000000000000000000000000000000000000000000000000000000000000",
      "blockNumber": "0x28fa9e6",
      "gasUsed": "0xc7ca",
      "effectiveGasPrice": "0x5b8d80",
      "blobGasUsed": "0xba6a",
      "from": "0x1333946c8f7e30a74f6934645188bf75a13688be",
      "to": "0x90340201d0512ff6d7a33a715df28ceabd950003",
      "contractAddress": null,
      "daFootprintGasScalar": "0x1be",
      "l1BaseFeeScalar": "0x44d",
      "l1BlobBaseFee": "0x37fa46a",
      "l1BlobBaseFeeScalar": "0xa118b",
      "l1Fee": "0x155379e88",
      "l1GasPrice": "0x3ea6052a",
      "l1GasUsed": "0x6bf"
    },
    {
      "status": "0x1",
      "cumulativeGasUsed": "0x7d233d",
      "logs": [
        {
          "address": "0x90340201d0512ff6d7a33a715df28ceabd950003",
          "topics": [
            "0xf6391f5c32d9c69d2a47ea670b442974b53935d1edc7fd64eb21e047a839171b",
            "0xe2b7fb3b832174769106daebcfd6d1970523240dda11281102db9363b83b0dc4",
            "0x0000000000000000000000001333946c8f7e30a74f6934645188bf75a13688be",
            "0x0000000000000000000000001333946c8f7e30a74f6934645188bf75a13688be"
          ],
          "data": "0x",
          "blockHash": "0x0000000000000000000000000000000000000000000000000000000000000000",
          "blockNumber": "0x28fa9e7",
          "blockTimestamp": "0x6a32b2ae",
          "transactionHash": "0x4c0cd1c5af054961b6be1e17548e5b54d1d1e7f7f158aa94c0303ef8579fbd61",
          "transactionIndex": "0x14",
          "logIndex": "0x147",
          "removed": false
        }
      ],
      "logsBloom": "0x00004000000000000000000000000000000000000000000000000000000000000000000000000000004000000000000000200000080000000000000000000000000000000000000000000000000000000000001000000000000000000000000040000000000000000000000000000000000000000000000000000000000000000000000040000000000200000000000000000000000000000000000000000000000000000000000000000000000000000000000000000000000000000000000000000000000000000000000000000000000000000000010000000000000000000000000000000000000001000000000000000000000000000002100000000000",
      "type": "0x2",
      "transactionHash": "0x4c0cd1c5af054961b6be1e17548e5b54d1d1e7f7f158aa94c0303ef8579fbd61",
      "transactionIndex": "0x14",
      "blockHash": "0x0000000000000000000000000000000000000000000000000000000000000000",
      "blockNumber": "0x28fa9e7",
      "gasUsed": "0x6112",
      "effectiveGasPrice": "0x5b8d80",
      "blobGasUsed": "0xba6a",
      "from": "0x1333946c8f7e30a74f6934645188bf75a13688be",
      "to": "0x90340201d0512ff6d7a33a715df28ceabd950003",
      "contractAddress": null,
      "daFootprintGasScalar": "0x1be",
      "l1BaseFeeScalar": "0x44d",
      "l1BlobBaseFee": "0x37fa46a",
      "l1BlobBaseFeeScalar": "0xa118b",
      "l1Fee": "0x155379e88",
      "l1GasPrice": "0x3ea6052a",
      "l1GasUsed": "0x6b2"
    },
    {
      "status": "0x1",
      "cumulativeGasUsed": "0x5e9b4c",
      "logs": [
        {
          "address": "0x90340201d0512ff6d7a33a715df28ceabd950003",
          "topics": [
            "0xf6391f5c32d9c69d2a47ea670b442974b53935d1edc7fd64eb21e047a839171b",
            "0x0000000000000000000000000000000000000000000000000000000000000000",
            "0x0000000000000000000000001333946c8f7e30a74f6934645188bf75a13688be",
            "0x0000000000000000000000001333946c8f7e30a74f6934645188bf75a13688be"
          ],
          "data": "0x",
          "blockHash": "0x0000000000000000000000000000000000000000000000000000000000000000",
          "blockNumber": "0x28fa9e8",
          "blockTimestamp": "0x6a32b2b0",
          "transactionHash": "0x9eab403ef25f7680a369405efbb24203a9e3c5763c1bfe43f62e0d697503a9d9",
          "transactionIndex": "0x11",
          "logIndex": "0xdc",
          "removed": false
        }
      ],
      "logsBloom": "0x00004000000000000000000000000000000000000000000000000000000000000000000000000000004000000000000000200000080000000000000000000000000000000000000000000000000000000000001000000000000000000000000040000000020000000000000000000800000000000000000000000000000000000000000040000000000000000000000000000000000000000000000000000000000000000000000000000000000000000000000000000000000000000000000000000000000000000000000000000000000000000000010000000000000020000000000000000000000001000000000000000000000000000000000000000000",
      "type": "0x2",
      "transactionHash": "0x9eab403ef25f7680a369405efbb24203a9e3c5763c1bfe43f62e0d697503a9d9",
      "transactionIndex": "0x11",
      "blockHash": "0x0000000000000000000000000000000000000000000000000000000000000000",
      "blockNumber": "0x28fa9e8",
      "gasUsed": "0x5f92",
      "effectiveGasPrice": "0x5b8d80",
      "blobGasUsed": "0xae38",
      "from": "0x1333946c8f7e30a74f6934645188bf75a13688be",
      "to": "0x90340201d0512ff6d7a33a715df28ceabd950003",
      "contractAddress": null,
      "daFootprintGasScalar": "0x1be",
      "l1BaseFeeScalar": "0x44d",
      "l1BlobBaseFee": "0x37fa46a",
      "l1BlobBaseFeeScalar": "0xa118b",
      "l1Fee": "0x155379e88",
      "l1GasPrice": "0x3ea6052a",
      "l1GasUsed": "0x640"
    }
  ],
  "libraries": [],
  "pending": [],
  "returns": {},
  "timestamp": 1781707439664,
  "chain": 84532,
  "commit": null
}