{
  "transactions": [
    {
      "hash": "0x5274464cd1154e32c4b193564e2c06a67a9213550150f21c650a12bfe660c13e",
      "transactionType": "CALL",
      "contractName": null,
      "contractAddress": "0xa89f9c532a8ea3fdef49aca7a2bc58b02db55bb8",
      "function": "grantRole(bytes32,address)",
      "arguments": [
        "0x0000000000000000000000000000000000000000000000000000000000000000",
        "0x42E750Deb20D1868Aa87F116Ee8231EdBD57c8cC"
      ],
      "transaction": {
        "from": "0x1333946c8f7e30a74f6934645188bf75a13688be",
        "to": "0xa89f9c532a8ea3fdef49aca7a2bc58b02db55bb8",
        "gas": "0x9a3e",
        "value": "0x0",
        "input": "0x2f2ff15d000000000000000000000000000000000000000000000000000000000000000000000000000000000000000042e750deb20d1868aa87f116ee8231edbd57c8cc",
        "nonce": "0x926",
        "chainId": "0x14a34"
      },
      "additionalContracts": [],
      "isFixedGasLimit": false
    },
    {
      "hash": "0x477bfff91e21d23a2e7f12a039bc42220e61c188ddf9b7c03fc160f79b4c117b",
      "transactionType": "CALL",
      "contractName": null,
      "contractAddress": "0xa89f9c532a8ea3fdef49aca7a2bc58b02db55bb8",
      "function": "grantRole(bytes32,address)",
      "arguments": [
        "0xfc425f2263d0df187444b70e47283d622c70181c5baebb1306a01edba1ce184c",
        "0x42E750Deb20D1868Aa87F116Ee8231EdBD57c8cC"
      ],
      "transaction": {
        "from": "0x1333946c8f7e30a74f6934645188bf75a13688be",
        "to": "0xa89f9c532a8ea3fdef49aca7a2bc58b02db55bb8",
        "gas": "0x11402",
        "value": "0x0",
        "input": "0x2f2ff15dfc425f2263d0df187444b70e47283d622c70181c5baebb1306a01edba1ce184c00000000000000000000000042e750deb20d1868aa87f116ee8231edbd57c8cc",
        "nonce": "0x927",
        "chainId": "0x14a34"
      },
      "additionalContracts": [],
      "isFixedGasLimit": false
    },
    {
      "hash": "0x9c05786995ce1aee83807a6d3175c8be12ae8292acf1beedbc8691e9b25cbb5e",
      "transactionType": "CALL",
      "contractName": null,
      "contractAddress": "0xa89f9c532a8ea3fdef49aca7a2bc58b02db55bb8",
      "function": "grantRole(bytes32,address)",
      "arguments": [
        "0x65d7a28e3265b37a6474929f336521b332c1681b933f6cb9f3376673440d862a",
        "0x42E750Deb20D1868Aa87F116Ee8231EdBD57c8cC"
      ],
      "transaction": {
        "from": "0x1333946c8f7e30a74f6934645188bf75a13688be",
        "to": "0xa89f9c532a8ea3fdef49aca7a2bc58b02db55bb8",
        "gas": "0x11402",
        "value": "0x0",
        "input": "0x2f2ff15d65d7a28e3265b37a6474929f336521b332c1681b933f6cb9f3376673440d862a00000000000000000000000042e750deb20d1868aa87f116ee8231edbd57c8cc",
        "nonce": "0x928",
        "chainId": "0x14a34"
      },
      "additionalContracts": [],
      "isFixedGasLimit": false
    },
    {
      "hash": "0xd7e03c1f455f7f04d2f8d596a13ec929466c375b152ae50e1fc7ec4900501e6c",
      "transactionType": "CALL",
      "contractName": null,
      "contractAddress": "0xa89f9c532a8ea3fdef49aca7a2bc58b02db55bb8",
      "function": "renounceRole(bytes32,address)",
      "arguments": [
        "0x65d7a28e3265b37a6474929f336521b332c1681b933f6cb9f3376673440d862a",
        "0x1333946C8F7e30A74f6934645188bf75A13688Be"
      ],
      "transaction": {
        "from": "0x1333946c8f7e30a74f6934645188bf75a13688be",
        "to": "0xa89f9c532a8ea3fdef49aca7a2bc58b02db55bb8",
        "gas": "0x8627",
        "value": "0x0",
        "input": "0x36568abe65d7a28e3265b37a6474929f336521b332c1681b933f6cb9f3376673440d862a0000000000000000000000001333946c8f7e30a74f6934645188bf75a13688be",
        "nonce": "0x929",
        "chainId": "0x14a34"
      },
      "additionalContracts": [],
      "isFixedGasLimit": false
    },
    {
      "hash": "0x568fe026b4744a96031b25145b0c65bd7bd42d477770830f4ff138fd219976f2",
      "transactionType": "CALL",
      "contractName": null,
      "contractAddress": "0xa89f9c532a8ea3fdef49aca7a2bc58b02db55bb8",
      "function": "renounceRole(bytes32,address)",
      "arguments": [
        "0xfc425f2263d0df187444b70e47283d622c70181c5baebb1306a01edba1ce184c",
        "0x1333946C8F7e30A74f6934645188bf75A13688Be"
      ],
      "transaction": {
        "from": "0x1333946c8f7e30a74f6934645188bf75a13688be",
        "to": "0xa89f9c532a8ea3fdef49aca7a2bc58b02db55bb8",
        "gas": "0x8627",
        "value": "0x0",
        "input": "0x36568abefc425f2263d0df187444b70e47283d622c70181c5baebb1306a01edba1ce184c0000000000000000000000001333946c8f7e30a74f6934645188bf75a13688be",
        "nonce": "0x92a",
        "chainId": "0x14a34"
      },
      "additionalContracts": [],
      "isFixedGasLimit": false
    },
    {
      "hash": "0xdc619053f97fb5c3042ddca9ed05769bbd2b297cb03cb0a4841f98050988ab13",
      "transactionType": "CALL",
      "contractName": null,
      "contractAddress": "0xa89f9c532a8ea3fdef49aca7a2bc58b02db55bb8",
      "function": "renounceRole(bytes32,address)",
      "arguments": [
        "0x0000000000000000000000000000000000000000000000000000000000000000",
        "0x1333946C8F7e30A74f6934645188bf75A13688Be"
      ],
      "transaction": {
        "from": "0x1333946c8f7e30a74f6934645188bf75a13688be",
        "to": "0xa89f9c532a8ea3fdef49aca7a2bc58b02db55bb8",
        "gas": "0x8415",
        "value": "0x0",
        "input": "0x36568abe00000000000000000000000000000000000000000000000000000000000000000000000000000000000000001333946c8f7e30a74f6934645188bf75a13688be",
        "nonce": "0x92b",
        "chainId": "0x14a34"
      },
      "additionalContracts": [],
      "isFixedGasLimit": false
    }
  ],
  "receipts": [
    {
      "status": "0x1",
      "cumulativeGasUsed": "0xd2c48",
      "logs": [],
      "logsBloom": "0x00000000000000000000000000000000000000000000000000000000000000000000000000000000000000000000000000000000000000000000000000000000000000000000000000000000000000000000000000000000000000000000000000000000000000000000000000000000000000000000000000000000000000000000000000000000000000000000000000000000000000000000000000000000000000000000000000000000000000000000000000000000000000000000000000000000000000000000000000000000000000000000000000000000000000000000000000000000000000000000000000000000000000000000000000000000",
      "type": "0x2",
      "transactionHash": "0x5274464cd1154e32c4b193564e2c06a67a9213550150f21c650a12bfe660c13e",
      "transactionIndex": "0x8",
      "blockHash": "0x0000000000000000000000000000000000000000000000000000000000000000",
      "blockNumber": "0x28f938e",
      "gasUsed": "0x6fac",
      "effectiveGasPrice": "0x5b8d80",
      "blobGasUsed": "0xae38",
      "from": "0x1333946c8f7e30a74f6934645188bf75a13688be",
      "to": "0xa89f9c532a8ea3fdef49aca7a2bc58b02db55bb8",
      "contractAddress": null,
      "daFootprintGasScalar": "0x1be",
      "l1BaseFeeScalar": "0x44d",
      "l1BlobBaseFee": "0x3b354be",
      "l1BlobBaseFeeScalar": "0xa118b",
      "l1Fee": "0x161a2d24b",
      "l1GasPrice": "0x3e229ce0",
      "l1GasUsed": "0x640"
    },
    {
      "status": "0x1",
      "cumulativeGasUsed": "0x7bb1d",
      "logs": [
        {
          "address": "0xa89f9c532a8ea3fdef49aca7a2bc58b02db55bb8",
          "topics": [
            "0x2f8788117e7eff1d82e926ec794901d17c78024a50270940304540a733656f0d",
            "0xfc425f2263d0df187444b70e47283d622c70181c5baebb1306a01edba1ce184c",
            "0x00000000000000000000000042e750deb20d1868aa87f116ee8231edbd57c8cc",
            "0x0000000000000000000000001333946c8f7e30a74f6934645188bf75a13688be"
          ],
          "data": "0x",
          "blockHash": "0x0000000000000000000000000000000000000000000000000000000000000000",
          "blockNumber": "0x28f938f",
          "blockTimestamp": "0x6a3285fe",
          "transactionHash": "0x477bfff91e21d23a2e7f12a039bc42220e61c188ddf9b7c03fc160f79b4c117b",
          "transactionIndex": "0x8",
          "logIndex": "0x9",
          "removed": false
        }
      ],
      "logsBloom": "0x00004004000000000000000000000000000000000000000000000000000000000040000000000000004000020000000000000000000000008000000000000000000000000000000000000000000000000000000000000000000000000000000000000000000000000000000000000000000000000000000000000000400000000400000000000000000000000000000000000000000000000000000000200000000000000000000000000000000000000000000000000000001010000000000000000000000000000000000000000000000000000000000100000000000000000000000000040000000001004000000000000000000000000000000000000000",
      "type": "0x2",
      "transactionHash": "0x477bfff91e21d23a2e7f12a039bc42220e61c188ddf9b7c03fc160f79b4c117b",
      "transactionIndex": "0x8",
      "blockHash": "0x0000000000000000000000000000000000000000000000000000000000000000",
      "blockNumber": "0x28f938f",
      "gasUsed": "0xc7d4",
      "effectiveGasPrice": "0x5b8d80",
      "blobGasUsed": "0xba6a",
      "from": "0x1333946c8f7e30a74f6934645188bf75a13688be",
      "to": "0xa89f9c532a8ea3fdef49aca7a2bc58b02db55bb8",
      "contractAddress": null,
      "daFootprintGasScalar": "0x1be",
      "l1BaseFeeScalar": "0x44d",
      "l1BlobBaseFee": "0x3c53568",
      "l1BlobBaseFeeScalar": "0xa118b",
      "l1Fee": "0x1896722b1",
      "l1GasPrice": "0x4194cab8",
      "l1GasUsed": "0x6bf"
    },
    {
      "status": "0x1",
      "cumulativeGasUsed": "0x2431de",
      "logs": [
        {
          "address": "0xa89f9c532a8ea3fdef49aca7a2bc58b02db55bb8",
          "topics": [
            "0x2f8788117e7eff1d82e926ec794901d17c78024a50270940304540a733656f0d",
            "0x65d7a28e3265b37a6474929f336521b332c1681b933f6cb9f3376673440d862a",
            "0x00000000000000000000000042e750deb20d1868aa87f116ee8231edbd57c8cc",
            "0x0000000000000000000000001333946c8f7e30a74f6934645188bf75a13688be"
          ],
          "data": "0x",
          "blockHash": "0x0000000000000000000000000000000000000000000000000000000000000000",
          "blockNumber": "0x28f9390",
          "blockTimestamp": "0x6a328600",
          "transactionHash": "0x9c05786995ce1aee83807a6d3175c8be12ae8292acf1beedbc8691e9b25cbb5e",
          "transactionIndex": "0x10",
          "logIndex": "0x58",
          "removed": false
        }
      ],
      "logsBloom": "0x00004004000000000000000000000000000000000000000000000000000000000040000000000000004000020000000000000000000000000000000000000000000000000000000000000000000000000000000000000000000000000000000000000000000000000000000000000000000000000000000000000000400000000000000000000000000000000000008000000000000000000000000000000000000000000000000000000000000000000000000000000000001010000000000000000000000000000000000000000000000000000000000100002000000000000000000000040000000001004000000000000400000000000000000000000000",
      "type": "0x2",
      "transactionHash": "0x9c05786995ce1aee83807a6d3175c8be12ae8292acf1beedbc8691e9b25cbb5e",
      "transactionIndex": "0x10",
      "blockHash": "0x0000000000000000000000000000000000000000000000000000000000000000",
      "blockNumber": "0x28f9390",
      "gasUsed": "0xc7d4",
      "effectiveGasPrice": "0x5b8d80",
      "blobGasUsed": "0xba6a",
      "from": "0x1333946c8f7e30a74f6934645188bf75a13688be",
      "to": "0xa89f9c532a8ea3fdef49aca7a2bc58b02db55bb8",
      "contractAddress": null,
      "daFootprintGasScalar": "0x1be",
      "l1BaseFeeScalar": "0x44d",
      "l1BlobBaseFee": "0x3c53568",
      "l1BlobBaseFeeScalar": "0xa118b",
      "l1Fee": "0x16c5085df",
      "l1GasPrice": "0x4194cab8",
      "l1GasUsed": "0x6bf"
    },
    {
      "status": "0x1",
      "cumulativeGasUsed": "0xf642e",
      "logs": [
        {
          "address": "0xa89f9c532a8ea3fdef49aca7a2bc58b02db55bb8",
          "topics": [
            "0xf6391f5c32d9c69d2a47ea670b442974b53935d1edc7fd64eb21e047a839171b",
            "0x65d7a28e3265b37a6474929f336521b332c1681b933f6cb9f3376673440d862a",
            "0x0000000000000000000000001333946c8f7e30a74f6934645188bf75a13688be",
            "0x0000000000000000000000001333946c8f7e30a74f6934645188bf75a13688be"
          ],
          "data": "0x",
          "blockHash": "0x0000000000000000000000000000000000000000000000000000000000000000",
          "blockNumber": "0x28f9391",
          "blockTimestamp": "0x6a328602",
          "transactionHash": "0xd7e03c1f455f7f04d2f8d596a13ec929466c375b152ae50e1fc7ec4900501e6c",
          "transactionIndex": "0xb",
          "logIndex": "0x17",
          "removed": false
        }
      ],
      "logsBloom": "0x00004000000000000000000000000000000000000000000000000000000000000040000000000000004000000000000000200000000000000000000000000000000000000000000000000000000000000000000000000000000000000000000040000000000000000000000000000000000000000000000000000000000000000000000040000000000000000000008000000000000000000000000000000000000000000000000000000000000000000000000000000000000010000000000000000000000000000000000000000000000000000000000000002000000000000000000000040000000001000000000000000400000000000000000000000000",
      "type": "0x2",
      "transactionHash": "0xd7e03c1f455f7f04d2f8d596a13ec929466c375b152ae50e1fc7ec4900501e6c",
      "transactionIndex": "0xb",
      "blockHash": "0x0000000000000000000000000000000000000000000000000000000000000000",
      "blockNumber": "0x28f9391",
      "gasUsed": "0x6120",
      "effectiveGasPrice": "0x5b8d80",
      "blobGasUsed": "0xba6a",
      "from": "0x1333946c8f7e30a74f6934645188bf75a13688be",
      "to": "0xa89f9c532a8ea3fdef49aca7a2bc58b02db55bb8",
      "contractAddress": null,
      "daFootprintGasScalar": "0x1be",
      "l1BaseFeeScalar": "0x44d",
      "l1BlobBaseFee": "0x3c53568",
      "l1BlobBaseFeeScalar": "0xa118b",
      "l1Fee": "0x1865afa50",
      "l1GasPrice": "0x4194cab8",
      "l1GasUsed": "0x6b2"
    },
    {
      "status": "0x1",
      "cumulativeGasUsed": "0x375708",
      "logs": [
        {
          "address": "0xa89f9c532a8ea3fdef49aca7a2bc58b02db55bb8",
          "topics": [
            "0xf6391f5c32d9c69d2a47ea670b442974b53935d1edc7fd64eb21e047a839171b",
            "0xfc425f2263d0df187444b70e47283d622c70181c5baebb1306a01edba1ce184c",
            "0x0000000000000000000000001333946c8f7e30a74f6934645188bf75a13688be",
            "0x0000000000000000000000001333946c8f7e30a74f6934645188bf75a13688be"
          ],
          "data": "0x",
          "blockHash": "0x0000000000000000000000000000000000000000000000000000000000000000",
          "blockNumber": "0x28f9392",
          "blockTimestamp": "0x6a328604",
          "transactionHash": "0x568fe026b4744a96031b25145b0c65bd7bd42d477770830f4ff138fd219976f2",
          "transactionIndex": "0x12",
          "logIndex": "0x39",
          "removed": false
        }
      ],
      "logsBloom": "0x00004000000000000000000000000000000000000000000000000000000000000040000000000000004000000000000000200000000000008000000000000000000000000000000000000000000000000000000000000000000000000000000040000000000000000000000000000000000000000000000000000000000000000400000040000000000000000000000000000000000000000000000000200000000000000000000000000000000000000000000000000000000010000000000000000000000000000000000000000000000000000000000000000000000000000000000000040000000001000000000000000000000000000000000000000000",
      "type": "0x2",
      "transactionHash": "0x568fe026b4744a96031b25145b0c65bd7bd42d477770830f4ff138fd219976f2",
      "transactionIndex": "0x12",
      "blockHash": "0x0000000000000000000000000000000000000000000000000000000000000000",
      "blockNumber": "0x28f9392",
      "gasUsed": "0x6120",
      "effectiveGasPrice": "0x5b8d80",
      "blobGasUsed": "0xba6a",
      "from": "0x1333946c8f7e30a74f6934645188bf75a13688be",
      "to": "0xa89f9c532a8ea3fdef49aca7a2bc58b02db55bb8",
      "contractAddress": null,
      "daFootprintGasScalar": "0x1be",
      "l1BaseFeeScalar": "0x44d",
      "l1BlobBaseFee": "0x3c53568",
      "l1BlobBaseFeeScalar": "0xa118b",
      "l1Fee": "0x51281fb8f",
      "l1GasPrice": "0x4194cab8",
      "l1GasUsed": "0x6b2"
    },
    {
      "status": "0x1",
      "cumulativeGasUsed": "0x263311",
      "logs": [
        {
          "address": "0xa89f9c532a8ea3fdef49aca7a2bc58b02db55bb8",
          "topics": [
            "0xf6391f5c32d9c69d2a47ea670b442974b53935d1edc7fd64eb21e047a839171b",
            "0x0000000000000000000000000000000000000000000000000000000000000000",
            "0x0000000000000000000000001333946c8f7e30a74f6934645188bf75a13688be",
            "0x0000000000000000000000001333946c8f7e30a74f6934645188bf75a13688be"
          ],
          "data": "0x",
          "blockHash": "0x0000000000000000000000000000000000000000000000000000000000000000",
          "blockNumber": "0x28f9393",
          "blockTimestamp": "0x6a328606",
          "transactionHash": "0xdc619053f97fb5c3042ddca9ed05769bbd2b297cb03cb0a4841f98050988ab13",
          "transactionIndex": "0x11",
          "logIndex": "0x61",
          "removed": false
        }
      ],
      "logsBloom": "0x00004000000000000000000000000000000000000000000000000000000000000040000000000000004000000000000000200000000000000000000000000000000000000000000000000000000000000000000000000000000000000000000040000000020000000000000000000800000000000000000000000000000000000000000040000000000000000000000000000000000000000000000000000000000000000000000000000000000000000000000000000000000010000000000000000000000000000000000000000000000000000000000000000000000020000000000000040000000001000000000000000000000000000000000000000000",
      "type": "0x2",
      "transactionHash": "0xdc619053f97fb5c3042ddca9ed05769bbd2b297cb03cb0a4841f98050988ab13",
      "transactionIndex": "0x11",
      "blockHash": "0x0000000000000000000000000000000000000000000000000000000000000000",
      "blockNumber": "0x28f9393",
      "gasUsed": "0x5fa0",
      "effectiveGasPrice": "0x5b8d80",
      "blobGasUsed": "0xae38",
      "from": "0x1333946c8f7e30a74f6934645188bf75a13688be",
      "to": "0xa89f9c532a8ea3fdef49aca7a2bc58b02db55bb8",
      "contractAddress": null,
      "daFootprintGasScalar": "0x1be",
      "l1BaseFeeScalar": "0x44d",
      "l1BlobBaseFee": "0x3c53568",
      "l1BlobBaseFeeScalar": "0xa118b",
      "l1Fee": "0x16c5085df",
      "l1GasPrice": "0x4194cab8",
      "l1GasUsed": "0x640"
    }
  ],
  "libraries": [],
  "pending": [],
  "returns": {},
  "timestamp": 1781696005657,
  "chain": 84532,
  "commit": null
}